{
  "_format": "hh-sol-artifact-1",
  "contractName": "Voting",
  "sourceName": "contracts/Voting.sol",
  "abi": [
    {
      "inputs": [],
      "stateMutability": "nonpayable",
      "type": "constructor"
    },
    {
      "inputs": [
        {
          "internalType": "address[]",
          "name": "_voters",
          "type": "address[]"
        }
      ],
      "name": "addVoters",
      "outputs": [],
      "stateMutability": "nonpayable",
      "type": "function"
    },
    {
      "inputs": [],
      "name": "admin",
      "outputs": [
        {
          "internalType": "address",
          "name": "",
          "type": "address"
        }
      ],
      "stateMutability": "view",
      "type": "function"
    },
    {
      "inputs": [
        {
          "internalType": "string",
          "name": "name",
          "type": "string"
        },
        {
          "internalType": "string[]",
          "name": "choices",
          "type": "string[]"
        },
        {
          "internalType": "uint256",
          "name": "offset",
          "type": "uint256"
        }
      ],
      "name": "createBallot",
      "outputs": [],
      "stateMutability": "nonpayable",
      "type": "function"
    },
    {
      "inputs": [
        {
          "internalType": "uint256",
          "name": "ballotId",
          "type": "uint256"
        }
      ],
      "name": "results",
      "outputs": [
        {
          "components": [
            {
              "internalType": "uint256",
              "name": "id",
              "type": "uint256"
            },
            {
              "internalType": "string",
              "name": "name",
              "type": "string"
            },
            {
              "internalType": "uint256",
              "name": "votes",
              "type": "uint256"
            }
          ],
          "internalType": "struct Voting.Choice[]",
          "name": "",
          "type": "tuple[]"
        }
      ],
      "stateMutability": "view",
      "type": "function"
    },
    {
      "inputs": [
        {
          "internalType": "uint256",
          "name": "ballotId",
          "type": "uint256"
        },
        {
          "internalType": "uint256",
          "name": "choiceId",
          "type": "uint256"
        }
      ],
      "name": "vote",
      "outputs": [],
      "stateMutability": "nonpayable",
      "type": "function"
    },
    {
      "inputs": [
        {
          "internalType": "address",
          "name": "",
          "type": "address"
        }
      ],
      "name": "voters",
      "outputs": [
        {
          "internalType": "bool",
          "name": "",
          "type": "bool"
        }
      ],
      "stateMutability": "view",
      "type": "function"
    },
    {
      "inputs": [
        {
          "internalType": "address",
          "name": "",
          "type": "address"
        },
        {
          "internalType": "uint256",
          "name": "",
          "type": "uint256"
        }
      ],
      "name": "votes",
      "outputs": [
        {
          "internalType": "bool",
          "name": "",
          "type": "bool"
        }
      ],
      "stateMutability": "view",
      "type": "function"
    }
  ],
  "bytecode": "0x608060405234801561001057600080fd5b5033600160006101000a81548173ffffffffffffffffffffffffffffffffffffffff021916908373ffffffffffffffffffffffffffffffffffffffff1602179055506114b6806100616000396000f3fe608060405234801561001057600080fd5b506004361061007d5760003560e01c80639f2524ee1161005b5780639f2524ee146100ea578063a3ec138d1461011a578063b384abef1461014a578063f851a440146101665761007d565b80631b0c27da1461008257806320faae8e146100b25780638203373a146100ce575b600080fd5b61009c60048036038101906100979190610c86565b610184565b6040516100a99190610efc565b60405180910390f35b6100cc60048036038101906100c79190610bfb565b6102f8565b005b6100e860048036038101906100e39190610bb2565b6104cb565b005b61010460048036038101906100ff9190610b72565b6105ef565b6040516101119190610f1e565b60405180910390f35b610134600480360381019061012f9190610b45565b61061e565b6040516101419190610f1e565b60405180910390f35b610164600480360381019061015f9190610cb3565b61063e565b005b61016e610888565b60405161017b9190610ee1565b60405180910390f35b606060036000838152602001908152602001600020600301544210156101df576040517f08c379a00000000000000000000000000000000000000000000000000000000081526004016101d690610f99565b60405180910390fd5b60036000838152602001908152602001600020600201805480602002602001604051908101604052809291908181526020016000905b828210156102ed578382906000526020600020906003020160405180606001604052908160008201548152602001600182018054610252906111cd565b80601f016020809104026020016040519081016040528092919081815260200182805461027e906111cd565b80156102cb5780601f106102a0576101008083540402835291602001916102cb565b820191906000526020600020905b8154815290600101906020018083116102ae57829003601f168201915b5050505050815260200160028201548152505081526020019060010190610215565b505050509050919050565b600160009054906101000a900473ffffffffffffffffffffffffffffffffffffffff1673ffffffffffffffffffffffffffffffffffffffff163373ffffffffffffffffffffffffffffffffffffffff1614610388576040517f08c379a000000000000000000000000000000000000000000000000000000000815260040161037f90610f39565b60405180910390fd5b600454600360006004548152602001908152602001600020600001819055508260036000600454815260200190815260200160002060010190805190602001906103d39291906108ae565b5080426103e091906110ed565b6003600060045481526020019081526020016000206003018190555060005b82518110156104c5576003600060045481526020019081526020016000206002016040518060600160405280838152602001858481518110610444576104436112d7565b5b60200260200101518152602001600081525090806001815401808255809150506001900390600052602060002090600302016000909190919091506000820151816000015560208201518160010190805190602001906104a59291906108ae565b5060408201518160020155505080806104bd90611230565b9150506103ff565b50505050565b600160009054906101000a900473ffffffffffffffffffffffffffffffffffffffff1673ffffffffffffffffffffffffffffffffffffffff163373ffffffffffffffffffffffffffffffffffffffff161461055b576040517f08c379a000000000000000000000000000000000000000000000000000000000815260040161055290610f39565b60405180910390fd5b60005b81518110156105eb57600160008084848151811061057f5761057e6112d7565b5b602002602001015173ffffffffffffffffffffffffffffffffffffffff1673ffffffffffffffffffffffffffffffffffffffff16815260200190815260200160002060006101000a81548160ff02191690831515021790555080806105e390611230565b91505061055e565b5050565b60026020528160005260406000206020528060005260406000206000915091509054906101000a900460ff1681565b60006020528060005260406000206000915054906101000a900460ff1681565b600115156000803373ffffffffffffffffffffffffffffffffffffffff1673ffffffffffffffffffffffffffffffffffffffff16815260200190815260200160002060009054906101000a900460ff161515146106d0576040517f08c379a00000000000000000000000000000000000000000000000000000000081526004016106c790610f79565b60405180910390fd5b60001515600260003373ffffffffffffffffffffffffffffffffffffffff1673ffffffffffffffffffffffffffffffffffffffff168152602001908152602001600020600084815260200190815260200160002060009054906101000a900460ff16151514610774576040517f08c379a000000000000000000000000000000000000000000000000000000000815260040161076b90610fb9565b60405180910390fd5b600360008381526020019081526020016000206003015442106107cc576040517f08c379a00000000000000000000000000000000000000000000000000000000081526004016107c390610f59565b60405180910390fd5b6001600260003373ffffffffffffffffffffffffffffffffffffffff1673ffffffffffffffffffffffffffffffffffffffff168152602001908152602001600020600084815260200190815260200160002060006101000a81548160ff02191690831515021790555060036000838152602001908152602001600020600201818154811061085d5761085c6112d7565b5b9060005260206000209060030201600201600081548092919061087f90611230565b91905055505050565b600160009054906101000a900473ffffffffffffffffffffffffffffffffffffffff1681565b8280546108ba906111cd565b90600052602060002090601f0160209004810192826108dc5760008555610923565b82601f106108f557805160ff1916838001178555610923565b82800160010185558215610923579182015b82811115610922578251825591602001919060010190610907565b5b5090506109309190610934565b5090565b5b8082111561094d576000816000905550600101610935565b5090565b600061096461095f84610ffe565b610fd9565b905080838252602082019050828560208602820111156109875761098661133a565b5b60005b858110156109b7578161099d8882610a91565b84526020840193506020830192505060018101905061098a565b5050509392505050565b60006109d46109cf8461102a565b610fd9565b905080838252602082019050828560208602820111156109f7576109f661133a565b5b60005b85811015610a4557813567ffffffffffffffff811115610a1d57610a1c611335565b5b808601610a2a8982610b02565b855260208501945060208401935050506001810190506109fa565b5050509392505050565b6000610a62610a5d84611056565b610fd9565b905082815260208101848484011115610a7e57610a7d61133f565b5b610a8984828561118b565b509392505050565b600081359050610aa081611452565b92915050565b600082601f830112610abb57610aba611335565b5b8135610acb848260208601610951565b91505092915050565b600082601f830112610ae957610ae8611335565b5b8135610af98482602086016109c1565b91505092915050565b600082601f830112610b1757610b16611335565b5b8135610b27848260208601610a4f565b91505092915050565b600081359050610b3f81611469565b92915050565b600060208284031215610b5b57610b5a611349565b5b6000610b6984828501610a91565b91505092915050565b60008060408385031215610b8957610b88611349565b5b6000610b9785828601610a91565b9250506020610ba885828601610b30565b9150509250929050565b600060208284031215610bc857610bc7611349565b5b600082013567ffffffffffffffff811115610be657610be5611344565b5b610bf284828501610aa6565b91505092915050565b600080600060608486031215610c1457610c13611349565b5b600084013567ffffffffffffffff811115610c3257610c31611344565b5b610c3e86828701610b02565b935050602084013567ffffffffffffffff811115610c5f57610c5e611344565b5b610c6b86828701610ad4565b9250506040610c7c86828701610b30565b9150509250925092565b600060208284031215610c9c57610c9b611349565b5b6000610caa84828501610b30565b91505092915050565b60008060408385031215610cca57610cc9611349565b5b6000610cd885828601610b30565b9250506020610ce985828601610b30565b9150509250929050565b6000610cff8383610e82565b905092915050565b610d1081611143565b82525050565b6000610d2182611097565b610d2b81856110ba565b935083602082028501610d3d85611087565b8060005b85811015610d795784840389528151610d5a8582610cf3565b9450610d65836110ad565b925060208a01995050600181019050610d41565b50829750879550505050505092915050565b610d9481611155565b82525050565b6000610da5826110a2565b610daf81856110cb565b9350610dbf81856020860161119a565b610dc88161134e565b840191505092915050565b6000610de06016836110dc565b9150610deb8261135f565b602082019050919050565b6000610e036014836110dc565b9150610e0e82611388565b602082019050919050565b6000610e266016836110dc565b9150610e31826113b1565b602082019050919050565b6000610e496019836110dc565b9150610e54826113da565b602082019050919050565b6000610e6c6021836110dc565b9150610e7782611403565b604082019050919050565b6000606083016000830151610e9a6000860182610ed2565b5060208301518482036020860152610eb28282610d9a565b9150506040830151610ec76040860182610ed2565b508091505092915050565b610edb81611181565b82525050565b6000602082019050610ef66000830184610d07565b92915050565b60006020820190508181036000830152610f168184610d16565b905092915050565b6000602082019050610f336000830184610d8b565b92915050565b60006020820190508181036000830152610f5281610dd3565b9050919050565b60006020820190508181036000830152610f7281610df6565b9050919050565b60006020820190508181036000830152610f9281610e19565b9050919050565b60006020820190508181036000830152610fb281610e3c565b9050919050565b60006020820190508181036000830152610fd281610e5f565b9050919050565b6000610fe3610ff4565b9050610fef82826111ff565b919050565b6000604051905090565b600067ffffffffffffffff82111561101957611018611306565b5b602082029050602081019050919050565b600067ffffffffffffffff82111561104557611044611306565b5b602082029050602081019050919050565b600067ffffffffffffffff82111561107157611070611306565b5b61107a8261134e565b9050602081019050919050565b6000819050602082019050919050565b600081519050919050565b600081519050919050565b6000602082019050919050565b600082825260208201905092915050565b600082825260208201905092915050565b600082825260208201905092915050565b60006110f882611181565b915061110383611181565b9250827fffffffffffffffffffffffffffffffffffffffffffffffffffffffffffffffff0382111561113857611137611279565b5b828201905092915050565b600061114e82611161565b9050919050565b60008115159050919050565b600073ffffffffffffffffffffffffffffffffffffffff82169050919050565b6000819050919050565b82818337600083830152505050565b60005b838110156111b857808201518184015260208101905061119d565b838111156111c7576000848401525b50505050565b600060028204905060018216806111e557607f821691505b602082108114156111f9576111f86112a8565b5b50919050565b6112088261134e565b810181811067ffffffffffffffff8211171561122757611226611306565b5b80604052505050565b600061123b82611181565b91507fffffffffffffffffffffffffffffffffffffffffffffffffffffffffffffffff82141561126e5761126d611279565b5b600182019050919050565b7f4e487b7100000000000000000000000000000000000000000000000000000000600052601160045260246000fd5b7f4e487b7100000000000000000000000000000000000000000000000000000000600052602260045260246000fd5b7f4e487b7100000000000000000000000000000000000000000000000000000000600052603260045260246000fd5b7f4e487b7100000000000000000000000000000000000000000000000000000000600052604160045260246000fd5b600080fd5b600080fd5b600080fd5b600080fd5b600080fd5b6000601f19601f8301169050919050565b7f596f757220617265206e6f74207468652061646d696e00000000000000000000600082015250565b7f566f74696e6720616c726561647920656e646564000000000000000000000000600082015250565b7f596f7520617265206e6f742074686520766f7465727300000000000000000000600082015250565b7f766f74696e67206973207374696c6c206e6f7420656e64656400000000000000600082015250565b7f596f7520616c726561647920766f74656420666f7220746869732062616c6c6560008201527f7400000000000000000000000000000000000000000000000000000000000000602082015250565b61145b81611143565b811461146657600080fd5b50565b61147281611181565b811461147d57600080fd5b5056fea26469706673582212206fe9e578d1aaeb06479da896061226c6ed5a864c3499e6d8638122a63c25fb4264736f6c63430008060033",
  "linkReferences": {},
  "deployedLinkReferences": {}
}